:0E10580048656C6C6F20576F726C64210A0043
:100FAE00759850758920758840758DE8758BE8D2D7
:0E0FBE0099D28E7BFF7A10795812086280F566
:06104900C2A58F80D2A7B2
:08104F007F027EEFDEFEDFFCF4
:011057002276
:0A106600C2A6121049C2A702104FE3
:100FCC00CFCDCFCECCCE120B9B7C007D0A120B9BCF
:040FDC00ED2430FFD1
:0A0FE000D2A6121049C2A702104F5A
:10101F00AE07BE0104ED148006BE0209ED243F4465
:06102F0080FF1210662292
:101035007F381210667F0C1210667F061210667FCD
:04104500010210662E
:0A107000AC0312101FAF04020FE0E2
:060F6A008B498A4A894B05
:100F700012101FE4FDAB49AA4AA94B8D827583006C
:0C0F8000120B5CFF6006120FE00D80E910
:010F8C002242
:0C0F10007F0AEA24FFFDE434FFFC7E00B1
:080F1C008E1C8F1D8C1E8D1F21
:100F24007F017E00E4FBEBC3951FE51E6480F8742B
:0E0F34008098500AAC1CAD1D120B890B80E892
:010F4200228C
:040FEA008A3C8B3D75
:100FEE0012101FAA3EEAD39400400D120F10AC3C13
:080FFE00AD3D120FCC1A80ED8D
:0110060022C7
:100E650012101FC3EA64809480400B7F2B120FE0A1
:100E75008A388B39800E7F2D120FE0C3E49BF5393C
:100E8500E49AF538AA37EAD39400400D120F10AC56
:090E950038AD39120FCC1A80EDC2
:010E9E002231
:040E9F008A418B42B7
:100EA30012101FAA43EAD3940040297F10120F1295
:100EB300AC41AD42CFCDCFCECCCE120B9BEF540F76
:100EC300FEC3940AEE5004243080022437FF120F2D
:040ED300E01A80D1D0
:010ED70022F8
:040ED8008A468B4774
:100EDC0012101FAA48EAD394004028EA24FFFDE42C
:100EEC0034FFFC7F027E00120F1CAC46AD47CFCD09
:100EFC00CFCECCCE120B9BEF54012430FF120FE05F
:030F0C001A80D276
:010F0F0022BF
:1010070011223F065B4F666D7D077F6F777C395EE8
:031017007971806C
:100D2E00E4F580EFF4FE1392A2EEC3131392A3EF39
:100D3E00F41313543F1392A4ED120BF00D81000D1A
:100D4E0086010D8B020D90030D95040D9A050D9FD6
:100D5E00060DA4070DA9080DAE090DD12E0DB34138
:100D6E000DB8420DBD430DC2440DC7450DCC460016
:100D7E00000DD4852280804E852380804985248075
:100D8E008044852580803F852680803A8527808017
:100D9E00358528808030852980802B852A80802685
:100DAE00852B808021852C80801C852D8080178549
:100DBE002E808012852F80800D85308080088531B1
:0B0DCE008080038532807F01020F8DC2
:060F8D00AE071FEE601A22
:100F9300754E01E54ED3940040F0754D8E754C02AD
:0A0FA300D54CFDD54DF7154E80E941
:010FAD002221
:04101A00024F00641D
:100C5100E4F551F552E5517021E55214600F14602D
:100C610011146013240370127590FE800D7590FDB0
:100C710080087590FB80037590F72094227F1412F1
:100C81000F8D3094FD7F14120F8DC3E49552FFE454
:100C91009551FE7C007D0A120B89EF242C806D207A
:100CA10095227F14120F8D3095FD7F14120F8DC385
:100CB100E49552FFE49551FE7C007D0A120B89EF09
:100CC100242B80482096227F14120F8D3096FD7FB1
:100CD10014120F8DC3E49552FFE49551FE7C007D03
:100CE1000A120B89EF242A80232097287F14120FE0
:100CF1008D3097FD7F14120F8DC3E49552FFE4955B
:100D010051FE7C007D0A120B89EF2429F550E43E47
:100D1100F54F80160552E55270020551C39404E562
:0C0D210051648094805003020C56AF50C7
:010D2D0022A3
:03000000020DD915
:0C0DD900787FE4F6D8FD758152020E20F0
:100B5C00BB010CE58229F582E5833AF583E022504E
:100B6C0006E92582F8E622BBFE06E92582F8E22298
:0D0B7C00E58229F582E5833AF583E49322B2
:100B8900EF8DF0A4A8F0CF8CF0A428CE8DF0A42E80
:020B9900FE223A
:100B9B00BC000BBE0029EF8DF084FFADF022E4CC3E
:100BAB00F875F008EF2FFFEE33FEEC33FCEE9DEC07
:100BBB00984005FCEE9DFE0FD5F0E9E4CEFD22ED4D
:100BCB00F8F5F0EE8420D21CFEADF075F008EF2F97
:100BDB00FFED33FD4007985006D5F0F222C398FD88
:050BEB000FD5F0EA2225
:100BF000D083D082F8E4937012740193700DA3A394
:100C000093F8740193F5828883E4737402936860A7
:060C1000EFA3A3A380DFA7
:10080000E517240BF8E60517227808300702780B65
:10081000E475F001120C41020C162000EB7F2ED281
:10082000008018EF540F2490D43440D4FF30040BD0
:10083000EF24BFB41A0050032461FFE518600215CD
:1008400018051BE51B7002051A30070D7808E475C2
:10085000F001120C41EF020C2F020F437403D20778
:100860008003E4C207F5178B088A09890AE4F518A2
:10087000F51AF51BE51860077F2012083B80F57517
:1008800019FFC201C200C202C203C205C206C208E9
:10089000120809FF700D3007057F0012084CAF1BCE
:1008A000AE1A22B4255FC2D5C204120809FF24D0B3
:1008B000B40A00501A75F00A781830D50508B6FF4A
:1008C0000106C6A426F620D5047002D20380D924DE
:1008D000CFB41A00EF5004C2E5D204020A4CD20190
:1008E00080C6D20080C0D20280BCD2D580BAD205E8
:1008F00080B47F2012083B2002077401B518004025
:10090000F1120800FF12083B020874D208D20680D8
:1009100095120800FB120800FA120800F94A4B7001
:1009200006791D7A0B7BFF20022EE518602A7E00D7
:100930008E82758300120B5C60060EEE651970F0F6
:10094000C2D5EBC0E0EAC0E0E9C0E0EE120A93D005
:10095000E0F9D0E0FAD0E0FB120C16FF60AAEBC081
:10096000E0EAC0E0E9C0E012083BD0E02401F9D0A1
:10097000E03400FAD0E0FBE5190460DCD519D98039
:10098000877BFF7A0A798FD202809C791080027966
:1009900008C206C2088008D2D5790A8004790AC242
:1009A000D5E519047002F519E4FAFDFEFF120800FE
:1009B000FC7B08200113120800FD7B1030000A1296
:1009C0000800FE120800FF7B20EC3382D592D55040
:1009D00013C3E43000069FFFE49EFEE42001039D64
:1009E000FDE49CFCE4CBF8C201EC700CCFCECDCC86
:1009F000E824F8F870F38017C3EF33FFEE33FEED11
:100A000033FDEC33FCEB33FB994002FB0FD8E9EBF1
:100A1000300105F8D0E0C448B201C0E00AEC4D4E08
:100A20004F78207B0070C2EAB5190040BCC0E012CC
:100A30000A95D0F0D0E0200104C4C0E0C4B201C0E7
:100A4000F0120824D0F0D5F0EB020874120BF00974
:100A50001153098B5808E24C08DE42098F4F099761
:0F0A60004409974908F743099D550981460981C3
:100A6F00450981470B3D5008E62D08EA2E090D2B4D
:100A7F0008EE23090B200B262A08A64800000905BB
:100A8F003F3F3F00790AA2D5200314300509B91062
:100A9F00020404B9080104A2D52006025001042063
:100AAF0002689202B518005034C0E07F203003195D
:100ABF007F30A20272067205500F120AECC202C2F8
:100ACF0006C205C2087F30800F300503E9C0E0126F
:100ADF00083B300503D0E0F9D0E0B518CC3005174E
:100AEF007F30B9100C12083B7F583004077F788095
:100AFF0003B9080312083B3002057F2D02083B7F24
:100B0F00202008F87F2B2006F322920280CF286E38
:100B1F00756C6C2900D2011208003001F8C20178FF
:100B2F001830D50108F60208A62D5043495812086F
:100B3F00002403B405004001E4900B389312082CF5
:0D0B4F00743A12082CD20375180402098BA9
:100DE500020FAEE493A3F8E493A34003F68001F267
:100DF50008DFF48029E493A3F85407240CC8C3330F
:100E0500C4540F4420C8834004F456800146F6DFDD
:100E1500E4800B0102040810204080901007E47E56
:100E2500019360BCA3FF543F30E509541FFEE493D2
:100E3500A360010ECF54C025E060A840B8E493A399
:100E4500FAE493A3F8E493A3C8C582C8CAC583CAC4
:100E5500F0A3C8C582C8CAC583CADFE9DEE780BE7C
:01101E0000D1
:100C1600BB010689828A83E0225002E722BBFE02DC
:090C2600E32289828A83E493220F
:100C2F00BB010689828A83F0225002F722BBFE01A4
:020C3F00F3229E
:100C4100FAE6FB0808E6F925F0F618E6CA3AF622B4
:100F4300EFB40A07740D120F4E740A309811A89962
:100F5300B8130CC2983098FDA899C298B811F6300E
:070F630099FDC299F59922E6
:00000001FF
