:1009820011083F065B4F666D7D077F6F777C395E8E
:0309920079710177
:06094D00AE071FEE601A68
:10095300751D01E51DD3940040F0751C8E751B02B7
:0A096300D51BFDD51CF7151D80E91A
:01096D002267
:100800007E01EFF4FB5E24FF92A20EEB5E24FF92CA
:10081000A3EFF4540424FF92A4ED12092708540016
:10082000085801085C0208600308640408680508A9
:100830006C0608700708740808780908942E087C6C
:1008400041088042088443088844088C4508904643
:100850000000089AE508803EE509803AE50A8036FE
:10086000E50B8032E50C802EE50D802AE50E802612
:10087000E50F8022E510801EE511801AE512801632
:10088000E5138012E514800EE515800AE516800652
:0A089000E5178002E51824FF9280AE
:01089A00223B
:10096E00751907751AD0E4FD7F021208007F641214
:04097E00094D80F2AD
:0300000002089B58
:0C089B00787FE4F6D8FD75811D0208E2AC
:10092700D083D082F8E4937012740193700DA3A35F
:1009370093F8740193F5828883E473740293686073
:06094700EFA3A3A380DF73
:1008A70002096EE493A3F8E493A34003F68001F2F0
:1008B70008DFF48029E493A3F85407240CC8C33352
:1008C700C4540F4420C8834004F456800146F6DF21
:1008D700E4800B0102040810204080900982E47E26
:1008E700019360BCA3FF543F30E509541FFEE49316
:1008F700A360010ECF54C025E060A840B8E493A3DD
:10090700FAE493A3F8E493A3C8C582C8CAC583CA07
:10091700F0A3C8C582C8CAC583CADFE9DEE780BEBF
:010995000061
:00000001FF
