:06062E00AE071FEE601A8A
:10063400754401E544D3940040F075438E7542023D
:0A064400D542FDD543F7154480E9C7
:01064E002289
:10046000CFCDCFCECCCE1200457C007D0A12004508
:10047000ED2430FF12070A1A227F0AEA24FFFDE466
:1004800034FFFC7E0022C2A58F80D2A71206DEC2F6
:0D049000A722CFCDCFCECCCE120045EF225B
:0806DE007F027EEFDEFEDFFC6F
:0106E60022F1
:08070200C2A61204860206DE05
:08070A00D2A61204860206DEED
:10068600AE07BE0104ED148006BE0209ED243F4408
:0606960080FF12070222A2
:10069C007F381207027F0C1207027F061207027FB7
:0406AC00010207023E
:0A06D400AC03120686AF0402070A09
:06060B008B458A46894779
:10061100120686E4FDAB45AA46A9478D8275830083
:0C062100120006FF600612070A0D80E9B7
:01062D0022AA
:080599008E3E8F3F8C408D4126
:1005A1007F017E00E4FBEBC39541E5406480F87474
:0E05B1008098500AAC3EAD3F1200330B80E83C
:0105BF002219
:04064F008A318B322F
:10065300120686AA33EAD39400400F1204791205D6
:0A06630099AC31AD3212046080EB57
:01066D00226A
:10049D00120686C3EA64809480400B7F2B12070AF4
:1004AD008A1E8B1F800E7F2D12070AC3E49BF51F3A
:1004BD00E49AF51EAA1DEAD39400400F1204791296
:0B04CD000599AC1EAD1F12046080EB0F
:0104D8002201
:0404D9008A368B379D
:1004DD00120686AA38EAD3940040257F1012047BB9
:1004ED00120599AC36AD37120492540FFEC3940A1F
:1004FD00EE5004243080022437FF12070A1A80D5EB
:01050D0022CB
:040541008A3B8B3C2A
:10054500120686AA3DEAD39400401DEA24FFFDE485
:1005550034FFFC7F027E00120599AC3BAD3C1204D2
:0805650092540112047180DDC3
:01056D00226B
:0C05E7000425080402010421010204089C
:0E06B00029F8E6F5907F047E001205C70922A6
:0705C0001207187FF47E0111
:1005C700E4FDFCC3ED9FEC9E5015E4FBFA0BBB006A
:0F05D700010AEB64704A70F50DBD00010C80E461
:0105E60022F2
:0A06BE00E4F974251206B0B904F83F
:0106C800220F
:0A06C900E4F974211206B0B904F838
:0106D3002204
:04071800E4F5902252
:10050E007F327E001205C79000001206BEA3E58260
:10051E00B4F4F7E583B401F21205C0E4F583F58275
:10052E001206C9A3E582B4F4F7E583B401F212050D
:03053E00C080D4A6
:1005F30011083F065B4F666D7D077F6F777C395E21
:030603007971808A
:10056E00AE48AF49E4FCFDF812041CAC00AD01AE80
:10057E0002AF03227E00CFCDCFCECCCE120045AD42
:0B058E000722AE48AF497C0002004588
:10024200E4F580EFF4FE1392A2EEC3131392A3EF30
:10025200F41313543F1392A4ED12009A0295000274
:100262009A01029F0202A40302A90402AE0502B38C
:100272000602B80702BD0802C20902E52E02C74102
:1002820002CC4202D14302D64402DB4502E04600E0
:100292000002E8850880804E8509808049850A80B1
:1002A2008044850B80803F850C80803A850D80805C
:1002B20035850E808030850F80802B8510808026CA
:1002C2008511808021851280801C8513808017858E
:1002D20014808012851580800D8516808008851710
:0B02E2008080038518807F0102062E3B
:10018E008E488F49E4FCFD7B807A967998F81204AC
:10019E001CAD07E4FF1202427B807A967998120515
:1001AE006E7B407A42790F780012041CAD077F01F6
:1001BE001202427B407A42790F12056E7BA07A863C
:1001CE007901780012041CAD077F0212023AE4FC9A
:1001DE00FD7BA07A867901120575E47B107A27F9EA
:1001EE00F812041CAD077F0312023A7C277D101211
:1001FE0000457E037FE81205847F04120242AE485A
:10020E00AF497C037DE81200457F641205827F05AD
:10021E001202427D641205907F0A1205827F061239
:10022E0002427D0A1205907F07020242120242AE7E
:04023E0048AF49225A
:04060600C100C1016D
:10066E00D288D2A8D2AFD2B85389F0438901E4F52B
:08067E008AF58CC28DD28C229A
:06071200E4F58AF58C22DB
:0906E700AF8CEFFEAD8AEDFF229D
:03071C00AF2E22DB
:03071F00AF2922DD
:0906F000300004C200D322C32231
:0906F900300104C201D322C32226
:030003000202ED09
:1002ED00C0E0C0D075D000C000C004C005C006C0BD
:0102FD0007F9
:1002FE00C2A812071230B2FD1206E7D3EF9440EEF9
:10030E00941F406B12071220B2FD1206E7D3EF9432
:10031E00B8EE940B4054E4FC754A0030B2FD12075F
:10032E001220B2FD1206E7742A2CF8C000E6C313A1
:10033E00D000F6C3EF94E8EE94034008742A2CF82C
:10034E00E64480F6054AE54AC3940840CE0CBC0448
:10035E00C730B2FDE52BF4B52A15E52DF4B52C0FFB
:10036E00852A2E852C29D2008005D20130B2FDC2FD
:03037E0089D2A879
:0F038100D007D006D005D004D000D0D0D0E032C5
:0300000002039068
:0C039000787FE4F6D8FD75814A0203D79F
:10000600BB010CE58229F582E5833AF583E02250AF
:1000160006E92582F8E622BBFE06E92582F8E222F9
:0D002600E58229F582E5833AF583E4932213
:10003300EF8DF0A4A8F0CF8CF0A428CE8DF0A42EE1
:02004300FE229B
:10004500BC000BBE0029EF8DF084FFADF022E4CC9F
:10005500F875F008EF2FFFEE33FEEC33FCEE9DEC68
:10006500984005FCEE9DFE0FD5F0E9E4CEFD22EDAE
:10007500F8F5F0EE8420D21CFEADF075F008EF2FF8
:10008500FFED33FD4007985006D5F0F222C398FDE9
:050095000FD5F0EA2286
:10041C00C2D5E830E70FB2D5E4C39BFBE49AFAE40B
:10042C0099F9E498F8EC30E717B2D512045212009F
:10043C00FCE4C39BFBE49AFAE499F9E498F8800392
:10044C001200FC30D50DE4C39FFFE49EFEE49DFD3D
:04045C00E49CFC22FE
:10009A00D083D082F8E4937012740193700DA3A3F5
:1000AA0093F8740193F5828883E473740293686009
:0600BA00EFA3A3A380DF09
:10039C0002050EE493A3F8E493A34003F68001F264
:1003AC0008DFF48029E493A3F85407240CC8C33362
:1003BC00C4540F4420C8834004F456800146F6DF31
:1003CC00E4800B01020408102040809005E7E47ED5
:1003DC00019360BCA3FF543F30E509541FFEE49326
:1003EC00A360010ECF54C025E060A840B8E493A3ED
:1003FC00FAE493A3F8E493A3C8C582C8CAC583CA18
:10040C00F0A3C8C582C8CAC583CADFE9DEE780BECF
:01060A0000EF
:1000C00075F008758200EF2FFFEE33FECD33CDCCF7
:1000D00033CCC58233C5829BED9AEC99E58298407A
:1000E0000CF582EE9BFEED9AFDEC99FC0FD5F0D657
:1000F000E4CEFBE4CDFAE4CCF9A88222B800C1B981
:100100000059BA002DEC8BF084CFCECDFCE5F0CBBE
:10011000F97818EF2FFFEE33FEED33FDEC33FCEBF7
:1001200033FB10D703994004EB99FB0FD8E5E4F9B2
:10013000FA227818EF2FFFEE33FEED33FDEC33FC9F
:10014000C933C910D7059BE99A4007EC9BFCE99A93
:10015000F90FD8E0E4C9FAE4CCFB2275F010EF2FD8
:10016000FFEE33FEED33FDCC33CCC833C810D707D8
:100170009BEC9AE899400AED9BFDEC9AFCE899F813
:0E0180000FD5F0DAE4CDFBE4CCFAE4C8F922A6
:00000001FF
